{
  "contractName": "TokenFaucet",
  "abi": [
    {
      "inputs": [
        {
          "internalType": "address",
          "name": "_teaTokenAddress",
          "type": "address"
        },
        {
          "internalType": "address",
          "name": "_owner",
          "type": "address"
        }
      ],
      "stateMutability": "nonpayable",
      "type": "constructor"
    },
    {
      "inputs": [
        {
          "internalType": "address",
          "name": "owner",
          "type": "address"
        }
      ],
      "name": "OwnableInvalidOwner",
      "type": "error"
    },
    {
      "inputs": [
        {
          "internalType": "address",
          "name": "account",
          "type": "address"
        }
      ],
      "name": "OwnableUnauthorizedAccount",
      "type": "error"
    },
    {
      "anonymous": false,
      "inputs": [
        {
          "indexed": true,
          "internalType": "address",
          "name": "previousOwner",
          "type": "address"
        },
        {
          "indexed": true,
          "internalType": "address",
          "name": "newOwner",
          "type": "address"
        }
      ],
      "name": "OwnershipTransferred",
      "type": "event"
    },
    {
      "anonymous": false,
      "inputs": [
        {
          "indexed": true,
          "internalType": "address",
          "name": "recipient",
          "type": "address"
        },
        {
          "indexed": false,
          "internalType": "uint256",
          "name": "amount",
          "type": "uint256"
        }
      ],
      "name": "TokensClaimed",
      "type": "event"
    },
    {
      "inputs": [],
      "name": "owner",
      "outputs": [
        {
          "internalType": "address",
          "name": "",
          "type": "address"
        }
      ],
      "stateMutability": "view",
      "type": "function"
    },
    {
      "inputs": [],
      "name": "renounceOwnership",
      "outputs": [],
      "stateMutability": "nonpayable",
      "type": "function"
    },
    {
      "inputs": [],
      "name": "teaToken",
      "outputs": [
        {
          "internalType": "contract IERC20",
          "name": "",
          "type": "address"
        }
      ],
      "stateMutability": "view",
      "type": "function"
    },
    {
      "inputs": [
        {
          "internalType": "address",
          "name": "newOwner",
          "type": "address"
        }
      ],
      "name": "transferOwnership",
      "outputs": [],
      "stateMutability": "nonpayable",
      "type": "function"
    },
    {
      "inputs": [
        {
          "internalType": "uint256",
          "name": "_amount",
          "type": "uint256"
        }
      ],
      "name": "claimTokens",
      "outputs": [],
      "stateMutability": "nonpayable",
      "type": "function"
    },
    {
      "inputs": [
        {
          "internalType": "uint256",
          "name": "_amount",
          "type": "uint256"
        }
      ],
      "name": "replenishFaucet",
      "outputs": [],
      "stateMutability": "nonpayable",
      "type": "function"
    }
  ],
  "bytecode": "0x608060405234801562000010575f80fd5b5060405162000c8c38038062000c8c83398181016040528101906200003691906200022a565b805f73ffffffffffffffffffffffffffffffffffffffff168173ffffffffffffffffffffffffffffffffffffffff1603620000aa575f6040517f1e4fbdf7000000000000000000000000000000000000000000000000000000008152600401620000a1919062000280565b60405180910390fd5b620000bb816200010460201b60201c565b508160015f6101000a81548173ffffffffffffffffffffffffffffffffffffffff021916908373ffffffffffffffffffffffffffffffffffffffff16021790555050506200029b565b5f805f9054906101000a900473ffffffffffffffffffffffffffffffffffffffff169050815f806101000a81548173ffffffffffffffffffffffffffffffffffffffff021916908373ffffffffffffffffffffffffffffffffffffffff1602179055508173ffffffffffffffffffffffffffffffffffffffff168173ffffffffffffffffffffffffffffffffffffffff167f8be0079c531659141344cd1fd0a4f28419497f9722a3daafe3b4186f6b6457e060405160405180910390a35050565b5f80fd5b5f73ffffffffffffffffffffffffffffffffffffffff82169050919050565b5f620001f482620001c9565b9050919050565b6200020681620001e8565b811462000211575f80fd5b50565b5f815190506200022481620001fb565b92915050565b5f8060408385031215620002435762000242620001c5565b5b5f620002528582860162000214565b9250506020620002658582860162000214565b9150509250929050565b6200027a81620001e8565b82525050565b5f602082019050620002955f8301846200026f565b92915050565b6109e380620002a95f395ff3fe608060405234801561000f575f80fd5b5060043610610060575f3560e01c806346e04a2f14610064578063715018a6146100805780638933b6fd1461008a5780638da5cb5b146100a8578063f2fde38b146100c6578063ff4eac06146100e2575b5f80fd5b61007e6004803603810190610079919061065e565b6100fe565b005b610088610309565b005b61009261031c565b60405161009f9190610703565b60405180910390f35b6100b0610341565b6040516100bd919061073c565b60405180910390f35b6100e060048036038101906100db919061077f565b610368565b005b6100fc60048036038101906100f7919061065e565b6103ec565b005b5f8111610140576040517f08c379a000000000000000000000000000000000000000000000000000000000815260040161013790610804565b60405180910390fd5b8060015f9054906101000a900473ffffffffffffffffffffffffffffffffffffffff1673ffffffffffffffffffffffffffffffffffffffff166370a08231306040518263ffffffff1660e01b815260040161019b919061073c565b602060405180830381865afa1580156101b6573d5f803e3d5ffd5b505050506040513d601f19601f820116820180604052508101906101da9190610836565b101561021b576040517f08c379a0000000000000000000000000000000000000000000000000000000008152600401610212906108ab565b60405180910390fd5b60015f9054906101000a900473ffffffffffffffffffffffffffffffffffffffff1673ffffffffffffffffffffffffffffffffffffffff1663a9059cbb33836040518363ffffffff1660e01b81526004016102779291906108d8565b6020604051808303815f875af1158015610293573d5f803e3d5ffd5b505050506040513d601f19601f820116820180604052508101906102b79190610934565b503373ffffffffffffffffffffffffffffffffffffffff167f896e034966eaaf1adc54acc0f257056febbd300c9e47182cf761982cf1f5e430826040516102fe919061095f565b60405180910390a250565b6103116104d8565b61031a5f61055f565b565b60015f9054906101000a900473ffffffffffffffffffffffffffffffffffffffff1681565b5f805f9054906101000a900473ffffffffffffffffffffffffffffffffffffffff16905090565b6103706104d8565b5f73ffffffffffffffffffffffffffffffffffffffff168173ffffffffffffffffffffffffffffffffffffffff16036103e0575f6040517f1e4fbdf70000000000000000000000000000000000000000000000000000000081526004016103d7919061073c565b60405180910390fd5b6103e98161055f565b50565b6103f46104d8565b5f8111610436576040517f08c379a000000000000000000000000000000000000000000000000000000000815260040161042d90610804565b60405180910390fd5b60015f9054906101000a900473ffffffffffffffffffffffffffffffffffffffff1673ffffffffffffffffffffffffffffffffffffffff166323b872dd3330846040518463ffffffff1660e01b815260040161049493929190610978565b6020604051808303815f875af11580156104b0573d5f803e3d5ffd5b505050506040513d601f19601f820116820180604052508101906104d49190610934565b5050565b6104e0610620565b73ffffffffffffffffffffffffffffffffffffffff166104fe610341565b73ffffffffffffffffffffffffffffffffffffffff161461055d57610521610620565b6040517f118cdaa7000000000000000000000000000000000000000000000000000000008152600401610554919061073c565b60405180910390fd5b565b5f805f9054906101000a900473ffffffffffffffffffffffffffffffffffffffff169050815f806101000a81548173ffffffffffffffffffffffffffffffffffffffff021916908373ffffffffffffffffffffffffffffffffffffffff1602179055508173ffffffffffffffffffffffffffffffffffffffff168173ffffffffffffffffffffffffffffffffffffffff167f8be0079c531659141344cd1fd0a4f28419497f9722a3daafe3b4186f6b6457e060405160405180910390a35050565b5f33905090565b5f80fd5b5f819050919050565b61063d8161062b565b8114610647575f80fd5b50565b5f8135905061065881610634565b92915050565b5f6020828403121561067357610672610627565b5b5f6106808482850161064a565b91505092915050565b5f73ffffffffffffffffffffffffffffffffffffffff82169050919050565b5f819050919050565b5f6106cb6106c66106c184610689565b6106a8565b610689565b9050919050565b5f6106dc826106b1565b9050919050565b5f6106ed826106d2565b9050919050565b6106fd816106e3565b82525050565b5f6020820190506107165f8301846106f4565b92915050565b5f61072682610689565b9050919050565b6107368161071c565b82525050565b5f60208201905061074f5f83018461072d565b92915050565b61075e8161071c565b8114610768575f80fd5b50565b5f8135905061077981610755565b92915050565b5f6020828403121561079457610793610627565b5b5f6107a18482850161076b565b91505092915050565b5f82825260208201905092915050565b7f416d6f756e74206d7573742062652067726561746572207468616e20300000005f82015250565b5f6107ee601d836107aa565b91506107f9826107ba565b602082019050919050565b5f6020820190508181035f83015261081b816107e2565b9050919050565b5f8151905061083081610634565b92915050565b5f6020828403121561084b5761084a610627565b5b5f61085884828501610822565b91505092915050565b7f4e6f7420656e6f75676820746f6b656e7320696e2074686520666175636574005f82015250565b5f610895601f836107aa565b91506108a082610861565b602082019050919050565b5f6020820190508181035f8301526108c281610889565b9050919050565b6108d28161062b565b82525050565b5f6040820190506108eb5f83018561072d565b6108f860208301846108c9565b9392505050565b5f8115159050919050565b610913816108ff565b811461091d575f80fd5b50565b5f8151905061092e8161090a565b92915050565b5f6020828403121561094957610948610627565b5b5f61095684828501610920565b91505092915050565b5f6020820190506109725f8301846108c9565b92915050565b5f60608201905061098b5f83018661072d565b610998602083018561072d565b6109a560408301846108c9565b94935050505056fea2646970667358221220e50ca4b86993abe188b7d9fe370ab97b678b2c6cfd7d882b927bbd15da30876064736f6c63430008150033",
  "immutableReferences": {},
  "source": "// TokenFaucet.sol\n// SPDX-License-Identifier: MIT\npragma solidity ^0.8.0;\n\nimport \"@openzeppelin/contracts/token/ERC20/IERC20.sol\";\nimport \"@openzeppelin/contracts/access/Ownable.sol\";\n\ncontract TokenFaucet is Ownable {\n    IERC20 public teaToken;\n\n    event TokensClaimed(address indexed recipient, uint256 amount);\n\n    constructor(address _teaTokenAddress, address _owner) Ownable(_owner) {\n        teaToken = IERC20(_teaTokenAddress);\n    }\n\n    function claimTokens(uint256 _amount) external {\n        require(_amount > 0, \"Amount must be greater than 0\");\n        require(teaToken.balanceOf(address(this)) >= _amount, \"Not enough tokens in the faucet\");\n\n        teaToken.transfer(msg.sender, _amount);\n\n        emit TokensClaimed(msg.sender, _amount);\n    }\n\n    // Function to allow the owner to replenish the faucet with more tokens\n    function replenishFaucet(uint256 _amount) external onlyOwner {\n        require(_amount > 0, \"Amount must be greater than 0\");\n\n        teaToken.transferFrom(msg.sender, address(this), _amount);\n    }\n}\n",
  "sourcePath": "/Users/amy/Desktop/repo/TeaTokenFaucetDApp/contracts/TokenFaucet.sol",
  "compiler": {
    "name": "solc",
    "version": "0.8.21+commit.d9974bed.Emscripten.clang"
  },
  "schemaVersion": "3.4.16",
  "updatedAt": "2024-02-24T16:05:32.124Z",
  "devdoc": {
    "errors": {
      "OwnableInvalidOwner(address)": [
        {
          "details": "The owner is not a valid owner account. (eg. `address(0)`)"
        }
      ],
      "OwnableUnauthorizedAccount(address)": [
        {
          "details": "The caller account is not authorized to perform an operation."
        }
      ]
    },
    "kind": "dev",
    "methods": {
      "owner()": {
        "details": "Returns the address of the current owner."
      },
      "renounceOwnership()": {
        "details": "Leaves the contract without owner. It will not be possible to call `onlyOwner` functions. Can only be called by the current owner. NOTE: Renouncing ownership will leave the contract without an owner, thereby disabling any functionality that is only available to the owner."
      },
      "transferOwnership(address)": {
        "details": "Transfers ownership of the contract to a new account (`newOwner`). Can only be called by the current owner."
      }
    },
    "version": 1
  },
  "userdoc": {
    "kind": "user",
    "methods": {},
    "version": 1
  }
}